:1000000000A4002089410000D910010075410000C2
:1000100075410000754100007541000000000000BE
:1000200000000000000000000000000091420000FD
:1000300075410000000000005D42000075410000B5
:10004000894400008944000089440000894400007C
:10005000894400008944000089440000894400006C
:10006000894400008944000089440000894400005C
:10007000894400008944000089440000894400004C
:10008000894400008944000089440000894400003C
:10009000894400008944000089440000894400002C
:1000A000894400008944000089440000894400001C
:1000B000894400008944000089440000894400000C
:1000C00089440000894400008944000089440000FC
:1000D00089440000894400008944000089440000EC
:1000E00089440000894400008944000089440000DC
:1000F00089440000894400008944000089440000CC
:1001000053B94AB9002908BF00281CBF4FF0FF317E
:100110004FF0FF3000F00CB8ADF1080C6DE904CEE3
:1001200000F008F8DDF804E0DDE9022304B07047D0
:10013000704700BF2DE9F04786468C460846089E6A
:10014000154674461946002B40F0C2808542B2FA2B
:1001500082F245D94AB1C2F1200300FA02FC2EFA1C
:1001600003F3954043EA0C0C94404FEA154EA8B2B5
:10017000BCFBFEF8230C0EFB18CC08FB00F943EA8D
:100180000C43994528D9EB1808F1FF3704D299455B
:1001900002D9A8F102072B44A3EB0903A4B2B3FBD5
:1001A000FEFC0EFB1C330CFB00F044EA0344A042AF
:1001B00014D92C190CF1FF3304D2A04202D9ACF1AE
:1001C00002032C44241A43EA07401EB1D440002302
:1001D00034607360BDE8F0874746DDE76346F1E7CA
:1001E00092BB431B01214FEA154EAFB2B3FBFEFC9D
:1001F000200C0EFB1C330CFB07F840EA0343984528
:1002000062D9EB180CF1FF3004D2984502D9ACF159
:1002100002002B44A3EB0803A4B2B3FBFEFC0EFBCD
:100220001C330CFB07F744EA0344A7424ED92C19B0
:100230000CF1FF3304D2A74202D9ACF102032C44E3
:10024000E41B43EA0040C0E7C2F1200320FA03F1B7
:10025000954090402EFA03F303434FEA154EAFB298
:10026000B1FBFEFC0EFB1C10190C0CFB07F841EA5D
:100270000041884504FA02F422D969180CF1FF30D4
:1002800004D2884502D9ACF102002944A1EB08014F
:100290009BB2B1FBFEFC0EFB1C110CFB07F743EA03
:1002A00001439F420ED9EB180CF1FF3104D29F425B
:1002B00002D9ACF102012B44DB1B41EA004192E779
:1002C0006046E3E76146F7E76046A3E76346B7E7C2
:1002D000834206D916B9002108467BE7C6E900E04B
:1002E000F9E7B3FA83F78FB9834201D3724508D88F
:1002F000BEEB020460EB030301209C461EB9002103
:1003000068E73846FAE7C6E9004CF8E7C7F1200C81
:10031000BB4022FA0CF41C432EFA0CF120FA0CF329
:10032000B84001434FEA14490EFA07F5B3FBF9F858
:100330001FFA84FE09FB18300B0C08FB0EFA43EA87
:1003400000439A4502FA07F240D9E31808F1FF305A
:1003500004D29A4502D9A8F102002344A3EB0A0370
:1003600089B2B3FBF9F809FB183308FB0EFE41EA2A
:1003700003418E452CD9611808F1FF3304D28E4514
:1003800002D9A8F10203214443EA0040A0FB0298ED
:10039000A1EB0E014145CE46434602D306D14D4561
:1003A00004D2B9EB020E68EB04030138002EA6D08C
:1003B000B5EB0E0261EB030101FA0CFC22FA07F324
:1003C0004CEA0303F940C6E9003198E74046C5E727
:1003D0004346D9E7074AC9B28C2303FB0123042013
:1003E00058744FF08073D2F81C0103FA01F112F037
:1003F00094BE00BFC84400202DE9F04101380D46ED
:10040000C4B20121D5F81C010A4DA14016461F4671
:100410004FF08C0812F081FE652018FB0400284480
:1004200008FB04553246394610F0C3FE85F8856056
:10043000BDE8F081C84400201FB50DF10F0104464E
:1004400010F0D1F810F0FF0006D02379034A009095
:100450000121034810F0AAFD04B010BDF4440100CE
:10046000BC3601002DE9F04F83B002AF0446BD6AEF
:1004700091464E1E5DB9B249B24AB34840F2892353
:1004800010F06CFB40F28921AE4810F05EFB28882A
:10049000B0F5104F00F0AA8032D841F2030290422A
:1004A00054D020D8012800F0C08141F201039842C5
:1004B00000F0A381B9F5E04F00F0CC8100F2C081DB
:1004C00041F20203994541D0B9F5405F00F0C78180
:1004D0006C468CB002AA9D4B53619D4BC2E90890BB
:1004E000C2E9063179E043F201029042E2D18C2266
:1004F00002FB0642053BD068A2F886300121F5E0F8
:100500004AF20103984200F085804FF6FF7398424B
:1005100020D0B0F5204FCDD14FF08C0808FB06FA63
:1005200004EB0A0999F80930052B0FD1D9F86000BE
:1005300012F0C3FD0022A81C2B7D9A42C0F23C8120
:1005400008FB0648D8F8600012F0BDFD0437BD4630
:10055000BDE8F08F8C23AA8803FB064391B29A84EE
:1005600044F23402914214D16D468AB01B7A02AA39
:100570007849516178497948C2E906134FF400730C
:100580001384774B42F8103F4FF4125110F03FF8AC
:10059000AD4643F2010399454FF08C030AD0B9F5FB
:1005A000E04F00F05881B9F5405F08D103FB0643E6
:1005B000022102E003FB06430121D86896E003FB19
:1005C00006436C468CB0197A9B8C02AA6548506130
:1005D0006148C2E90839C2E906014FF40073138586
:1005E000614B42F8103F4FF45251E0E08C2303FB83
:1005F0000643AA781A75EA785A752A799A756A793B
:10060000DA75AA791A762A895A83D5F80A20DA6126
:100610000821D2E78C2301FB034818F8849C58F882
:1006200088BC09F1FF3A5FFA8AFA504A4B48032125
:1006300010F0A9FCAB78B5F80320032100924748DD
:100640004B4A10F0B3FCB5F80310B1F5C05F20D0F1
:100650008C2303FB064318F8830C93F82C30E846F0
:100660008CB002AADFF80CC1C2F814C09362DFF8A4
:1006700008C14FF400739385404BC2E90801C2E9F9
:1006800006C9364842F8103F4FF473510FF0BFFFD0
:10069000C546B5F8033041F60D02934229D841F61C
:1006A000080293423FF652AFB3F5C05F2BD0A3F5DB
:1006B000C052023A012A69D86C468AB002AA304B6D
:1006C00053612D4B2548C2E906394FF4007313845A
:1006D000234B42F8103F4FF412510FF098FFA546FC
:1006E0004FF48031DBF81C0101FA0AF112F015FD1C
:1006F0002CE74FF62672934248D1224A174803212D
:1007000010F041FCECE78C2303FB06435B7C012BE0
:1007100013D06C468AB002AA1B4B5361164B0F488C
:10072000C2E906394FF4007313840D4B42F8103FB1
:100730004FF412510FF06BFFA5464FF48071D1E7D3
:100740003A4501001445010053450100C44601002B
:10075000574901007045010043490100BC360100C2
:10076000040000019D45010006000001D84501007C
:10077000E2450100F54501002E4901000700000196
:100780002A4601004F460100634601006C468AB0CC
:1007900002AA34495161136233494FF400739384C0
:1007A000324BC2E9061942F8103F4FF4325130483B
:1007B0000FF02DFFA546C9E699F82C30591C092BDE
:1007C00089F82C1009D92B492B4A2C4840F2FB13ED
:1007D00010F0C4F940F2FB1156E603EB430302EBC1
:1007E00042015344234410F801C083F82DC029442A
:1007F0000132B1F80310D9859EE64FF08C0808FB52
:1008000006F808F16500291DA044EA78204410F09C
:10081000D0FCEB7888F88530AB7888F86430184BDA
:100820004021D3F81C01B14060E76B88A4F8203167
:100830006B68C4F824318C2303FB06431021BCE60B
:10084000B9F5004F7FF444AE8C2303FB064404212A
:10085000E0684BE78C2303FB06432021ADE68C23A5
:10086000A4E600BF834601002E49010005000001F7
:10087000BC360100B3460100144501005345010098
:10088000C8440020F0B583B000AF134605463A1DBA
:1008900080680E4612F029FC0446D0B16C468AB03E
:1008A0002B796A4613495161134914481662C2E90B
:1008B00006134FF400739384114B42F8103F4FF42A
:1008C00032510FF0A4FE4FF40040A5460C37BD4650
:1008D000F0BD7968A86812F022FC022E01D0202E0B
:1008E00005D1288C0028F1D000232B84EEE7204688
:1008F000ECE700BF0D470100E3480100BC360100F2
:100900000500000184B02DE9F04F97B000AF07F16A
:10091000800484E80F000DF041FA0024C7E9044484
:10092000054697F88C30A3423BD8834E0222002123
:1009300007F1080010F048FC4FF494720021304693
:1009400010F042FC7D4BC7F8843007F180007C4BEF
:10095000C6F81C51C7F88060C7F888300BF010F952
:10096000002832D16C4688B06A46764B5361764B8C
:1009700093614FF400739383744B42F8103F7448B3
:100980004FF4E2510FF043FE72497348734AA54693
:1009900040F2651310F0E2F8704840F2651110F073
:1009A000D4F8D7F8903003EB04135B681B78032B63
:1009B00009D101236A496B4822460DF01DFA07F15F
:1009C000100343F824000134ABE70025306007F141
:1009D00008083446AB4697F88C30AB4200F2D4801E
:1009E000614A5B48032110F0CEFA534C4FF47A73FE
:1009F000D4F81C0107F10C024FF0FF3112F075FB27
:100A000005460028F1D1F968D4F81C0112F087FBE3
:100A100012F0C0FC4FF47A72A0FB020302FB013318
:100A2000C00B40EA43433B60344697F88C30AB42FE
:100A3000DBD9231D7B60FB68EB40DB0707D5637CBC
:100A4000032B04D1D4F88C300BB1201D9847FA68E1
:100A50004023AB40134228D0A36A3A68D31AB3F5B7
:100A60007A7F22D907F11808A26204F1640A4FF0D4
:100A70000009C34694F885303C494B4500F2578144
:100A8000E8468AB0237A6A463949C2F81CB0C2E9FE
:100A9000051340F201331384364B42F8103F2C48C3
:100AA0004FF413510FF0B3FDC546FA684FF480338D
:100AB000AB40134205F1010800F07781637C012B04
:100AC00040F0B881786894F808900FF0A3FDF0B971
:100AD000206A12F0F2FA237D042B00F03281EA46FC
:100AE0008AB06A46244951611362244918484FF478
:100AF00000739384224BC2E9061942F8103F4FF469
:100B000032510FF084FDD546206A12F0DCFAE94636
:100B10008AB06A461B4B53610B4BC2E906384FF44F
:100B200000731384134B42F8103F4FF412510848DE
:100B30000FF06DFDCD4638E1C8440020650400008B
:100B4000F90300003447010062490100030000017D
:100B5000BC360100DF790100534501001445010056
:100B6000D503000040420F00D3470100EA470100CF
:100B7000EF4701000400000105480100F0480100B2
:100B80000500000191480100D7F8903003EB0513F0
:100B900004F1040A5B681B78002B7DD0691CC9B284
:100BA0002172666088F80030306811F02DFE8146B1
:100BB0000DF0C6F820660DF0C3F820620DF0C0F805
:100BC00000221146C4F8880048464FF001090AF097
:100BD0001DFD84F810900DF0E1F80222E060002184
:100BE00007F10C0010F0F0FA4FF6F073BB81207A99
:100BF00007F10C03022249460BF08AF8C8BB4FF4F8
:100C00007A7210215046FFF73DFE90BB6368B3F83F
:100C1000201140F29340814263D0E9468CB094F8B1
:100C200008C06B46DFF848E2C3F814E0DFF844E29E
:100C30009962C3E906ECDFF840C2C7F818C0DFF8D4
:100C40003CC203F11002C3E908C003F12B0107F114
:100C5000180003F12F0C10F801EB01F801EF6145CA
:100C6000F9D18749196187484FF481410FF0CFFCD2
:100C7000CD46E94688B06A46834B5361834B936106
:100C80004FF400739383824B42F8103F7D484FF43A
:100C9000E4510FF0BCFCCD46237C012B05F101058E
:100CA00019D198F8001050460FF003FD98B1E946AD
:100CB0008AB06A46774B5361774B7248C2E9063572
:100CC0004FF400731384754B42F8103F4FF41251E8
:100CD0000FF09DFCCD46C4F828B008F101088C3413
:100CE00079E6D3F824117B29D6D0E9468CB0207A56
:100CF0006B46DFF87CC1C3F814C0DFF878C1C3E9E4
:100D000006C05D48B861664818627B20C3E90901E6
:100D100003F1100207F1180003F12B0103F12F0C6E
:100D200010F801EB01F801EF6145F9D199E7404670
:100D30001AF8012F03F0DEFD09F1010908F102089C
:100D400098E60623637203236374EA46554BE06911
:100D5000618BC4F88C308CB06A46534B5361534B53
:100D6000C2E908014FF4007B5149A2F828B0C2E95A
:100D70000639444842F8101F4FF453510FF047FC16
:100D800002B06A46494B4B495161C2E90639434BAF
:100D90003C48A2F820B04FF4135142F8103F0FF036
:100DA00036FCD546206A12F08EF9FA684FF080734F
:100DB000AB40134224D0637C042B21D13E4B217ADB
:100DC000186811F021FD11F023FA07F10803786883
:100DD000595D0FF06EFC98B1E9468AB06A462D4B1A
:100DE00053612D4B2748C2E906384FF40073138432
:100DF0002A4B42F8103F4FF412510FF008FCCD4639
:100E0000FA684FF48073AB40134210D007F110031F
:100E100053F82590484612F02AFA637C012B1DD125
:100E20004846264912F021FA48460DF009F88C345C
:100E30004546FAE5022BB8D0E9468AB06A46204911
:100E40005161136214494FF4007393841D4BC2E93E
:100E5000061842F8103F4FF4325168E6022B04D0D6
:100E600029460020FFF7B6FAE1E700236374DEE7C6
:100E70005147010002490100000202047A470100C3
:100E800007000002BC3601008C470100194901002F
:100E900003000001B44701006249010004000001A1
:100EA000834701003904000045480100F048010073
:100EB0000600000177480100C844002020A1070077
:100EC000AF48010005000001B0B582B002AF354A5D
:100ED0003548032110F057F834480BF085FC0446E0
:100EE00000283ED16D4688B002AA314B5361314B88
:100EF00093614FF4007393832F4B42F8103F4FF4EC
:100F0000E2510346284802F077FAAD4600242B4A06
:100F10002B4B94601C6094612A4C02232373226142
:100F2000294A2148032110F037F8002141F69A1090
:100F30000EF0C6FC254B0093254A264801944FF439
:100F4000005304210CF0B6FE234B186030BB23493C
:100F50002348244AA5230FF001FE2248A5210FF0C3
:100F6000F4FD0346204A21481C210CF013FE002802
:100F7000CDDA6C4688B002AA1D4B53610D4B9361CC
:100F80004FF4007393830C4B42F8103F0648002344
:100F90004FF4E25102F030FAA546B7E70020BD4613
:100FA000B0BD00BF71490100BC36010058370100D7
:100FB0007E4901009A490100030000010000002061
:100FC000F0450020FC450020C64901001307010040
:100FD000004D0020D8490100F84500201B4A0100BF
:100FE00053450100EE49010045C90000D03401001D
:100FF000A349010038B5044C044DAC4200D338BDC0
:1010000054F8043B9847F8E7AC360100AC360100D1
:1010100038B5054C256804EB850405B938BD54F88E
:101020000439013D9847F8E7A036010070B50C4639
:10103000002934D002680B1F9B1AD90823F007033C
:1010400013445D88E8070DD4154A16491648AF23A6
:101050000FF084FD214615480FF080FDAF211048A8
:101060000FF073FD10460FF06BFB084432F8306050
:10107000801B81420BD00A4A0D490B48B7230FF061
:101080006DFD21460B480FF069FDB721E7E725F01C
:1010900001055D80BDE8704010460FF00EBC70BDCC
:1010A000564A0100794A0100534501008A4A01006D
:1010B000C24A0100E84A01002DE9F8434B1E0B40EB
:1010C00006680F46144611D0C1F1000909EA01096A
:1010D0004A46042A03F1FF3128BF042219420CD1E9
:1010E0001F46E4B900252846BDE8F883042913D833
:1010F000BDE8F84311460FF011BC2D492D4A2E488A
:101100004FF4A2730FF02AFD2C480FF027FD294859
:101110004FF4A2710FF019FD99460422E1E7B3687C
:10112000B3EBD40FDED904F10B013944891AC90895
:1011300030460FF05BFB80460028D3D009F1040550
:1011400005EBC0057B1E35441D44B5FBF7F57D431B
:10115000A5EB09052C442B1F07349B1B24F0070427
:10116000A41BB0EBD30F4FEAD3074FEAE40408D235
:1011700001463A4630460FF086FB414630460FF0B6
:10118000E4FA394630460FF0DBFA3844844207D29D
:10119000304622460FF077FB214630460FF0D5FA55
:1011A00006EBC706738843F0010373809BE700BF1B
:1011B000244B0100564A0100534501003F4B0100FA
:1011C000B2F5802FF8B504460ED33B493B4A3C4864
:1011D00040F2EB130FF0C2FC3A480FF0BFFC40F2B4
:1011E000EB1136480FF0B1FC042A0CD83649334ACB
:1011F00033484FF4F9730FF0B1FC34480FF0AEFCF4
:101200004FF4F971EDE7043AC81D0A4420F00700D5
:1012100022F00702121A172A4FEAD2030CD82C49DF
:10122000264A274840F2FB130FF098FC27480FF09E
:1012300095FC40F2FB11D4E7B3FA83F1C1F120062B
:10124000C1F1240189000731C9084D1C20609D426D
:101250004FF000048360C4600CD91E49174A184837
:101260004FF403730FF07AFC18480FF077FC4FF43B
:101270000371B6E700F10C0505EB860645F8044F4F
:10128000B542FBD14D0045F00105458000EBC1069C
:101290005D1A6F0004807780861820F8311000EB0B
:1012A000C303748085525A8842F001025A80BDE817
:1012B000F8400FF04ABA00BF5C4B0100564A0100EB
:1012C00053450100724B0100894B0100AA4B0100FC
:1012D000C34B0100EC4B01002DE9F04F91B08407A6
:1012E000009302F004030293C2F3C20303F101036B
:1012F000DDF86880039205460E46059340F0F581BF
:10130000041D30B1072909D86FF01B0011B0BDE8EA
:10131000F08F01F00706341DC6F10806009B4FF060
:101320000009013B4FF0040B0193CDF810904F469C
:101330004B464FF0FF32DA460DB100992160059817
:10134000002800F3D78098480099814203D397483A
:101350008142C0F0CF800399A4EB050E89074FEAC4
:101360009E0040F1E2804FF0000CCCE07A285AD881
:101370004B280CD8472856D829282AD8252851D0B8
:1013800051D8202877D023384342434173E04C386A
:101390002E2848D8DFE800F06F47474747474747C0
:1013A00047474747494747474747474747594749B7
:1013B000495959596F496C476F4718491847478031
:1013C0007D49474749477D00002000234FF0040B2B
:1013D00039E02A38C0B2012101FA00F010EA0E0FFC
:1013E00049D110F0625C30D110EA010343D060466D
:1013F000013C5C44B4FBFBF40BFB04F4002D60D017
:10140000AAEB050CA444B4453FF67EAF00286AD190
:10141000BAF1040F45D158F8040B206004344FF0A2
:10142000040A28E0013A002325E0019B13F8013C5F
:101430006C2B33D1019B13F8023C00206C2B03462C
:10144000C4D14FF0080BDA46D2E708F1070828F0BC
:1014500007080734F8E802AB24F0070435B1069812
:101460002044B0423FF650AFC4E900AB083400233B
:101470004FF0080BDA46019911F8010F019100288D
:1014800000F0BB80002B7FF471AF2528F3D101322F
:1014900001234FF0040BEDE7184696E700200346C2
:1014A000A6E7BAF1080F40F09A8008F1070828F083
:1014B0000708F8E80201C4E9000108344FF0080AFF
:1014C000D9E780B9BAF1040F02D108F10408A5E701
:1014D000BAF1080F40F0838008F1070828F00708E8
:1014E00008F10808E9E705990139059158F8041B46
:1014F000009121E7039988074AD5A4EB050E4FEA2E
:101500009E004FF0010CBEF5007F1ED32849294AEA
:10151000294840F27B230FF021FB28480FF01EFBE7
:1015200040F27B2123480FF010FB0F2F0FD8002D26
:1015300048D007F140010DEB010C0CF8200C0CF821
:10154000102C04980130049021E00F2F0CD9184979
:10155000184A19484FF420730FF000FB18480FF099
:10156000FDFA4FF42071DDE7CDB107F140010DEB3D
:10157000010EC0B20EF8200C0EF8102CBCF1000FBA
:10158000DFD060F07F000EF8200C09F1010901376F
:10159000C5F10801043406914FF6DA7E6BE7BCF121
:1015A000000F0FD00136F2E748340100448B0100F0
:1015B000DF790100174C010053450100454C010043
:1015C000664C0100029802360028E0D10098CDE96F
:1015D00006320FF0D7FDDDE906320644D7E7444A6C
:1015E0004449454840F2C5230FF0B8FA51464348F4
:1015F0000FF0B4FA40F2C52194E7631BB3F5806F96
:101600000CD33C493A4A3C4840F2D1230FF0A6FAA9
:101610003B480FF0A3FA40F2D12183E71DB9A6F1B0
:101620000804E01872E6029A28609B082B709DF867
:101630001030C2B1EB7085F80290B9F1000F05D0FF
:1016400008A80022C5F1010C97420ED1C5F1010393
:101650000DF120084FF0000A01930DF1300B5745B2
:1016600012D1601B52E66B70E5E710F8013B1906DA
:1016700008D504EB0C0EB64503F07F033FF644AEED
:1016800004F8013B0132DFE7B9F1000F03D098F90C
:101690000020002A17DB029BD3B11AF80B2004F8B4
:1016A000012B0022019B98182044B0423FF62CAE3B
:1016B00098F8000004F8010B0099039220460FF0FF
:1016C00078FD039A14440AF1010A08F10108C6E7FB
:1016D00098F8002055F822300093029B45F82230FC
:1016E00000980FF04FFD421CDCE76FF00D000DE697
:1016F000174C0100DF79010053450100804C0100C7
:10170000954C01002DE9F04F95B000AF8A46D7F80F
:1017100078B07A62BB61044658B9A949A94AAA4877
:101720004FF465730FF01AFA4FF46571A5480FF086
:101730000CFACBF3C0033B6149B903784678807853
:1017400000EB8300204456451AD8A0EB040A94F815
:101750000290E3787B614E46B9F1000F02D01BF096
:10176000010F16D17B6953BB7B6A1BB1BA69514625
:1017700020469847554628465437BD46BDE8F08F69
:10178000451C28460FF0FEFC013028440AF1010AEE
:10179000D9E7217863683B627B6A8A00FA6004EBD0
:1017A0008101002B40F0018155460E4609EB010AEC
:1017B0004FF0000856454CD101EB090610E01BF034
:1017C000020FD1D02678B300FB6063683B627B6A6E
:1017D00004EB8601002B73D1554601EB09069846B0
:1017E0001BF0050F0CBF022301237B627B6906EB14
:1017F000430A0BF00203FB615645BCD016F8021BEE
:1018000016F8013C54F82390704B994502D3704B65
:10181000994534D33B69002B3ED0386A0FF0D8F895
:10182000002839D0E9468AB06A466A4B53613B6A60
:10183000C2E906314FF400731384674B42F8103F3E
:10184000664800234FF4125101F0D6FD023DCD460B
:10185000D2E716F8012B796254F822000FF092FCBF
:10186000FB6F796A013043B1D7F8803098453EBFAD
:10187000FB6F23F8180008F1010805449AE73B695B
:1018800023B1386A0FF0A4F80028CBD11BF0010F68
:1018900005D17B6AED1AAFE7FB69002BACD0484657
:1018A0000FF070FCFB6F4BB1D7F8803098453FBF0D
:1018B000FA6F431C22F8183008F1010805449BE731
:1018C000B9F1000F76D01BF0040676D0C84600268A
:1018D00007F140004A46F9610FF06BFCF9697A693B
:1018E00001EB0903FB617B695B00BB60FB6903EBF8
:1018F00042037B610BF002037B60FB697A699342D0
:101900006ED123783B6263781BF0020F06EB030273
:101910000CBF4FEA580100211BF0010FD2B240F07A
:10192000E4801BF0040F14BF404600203B61E378C5
:1019300094F802B07B616270A070E170BA69F968D6
:101940007B6A20469847051EFFF615AF3B6A237059
:101950003B6963707B69E3704146BA697B6A84F8CE
:1019600002B007F140009847B0F10008C0F2EA80E9
:10197000FB68BA69F869AAEB0901C91ABB68C91AF8
:101980007B6A98470028C0F2DF80A84408EB000576
:101990004FF0000B07F1300AB345C0F0A8800021DA
:1019A000BA697B6A08469847E5E64FF0000807F1F8
:1019B00030008FE74E46C84691E7B0468FE700BF3C
:1019C000AC4C0100174C01005345010048340100A4
:1019D000448B0100C74C010004000001AC3601003B
:1019E000FB6913F8021BFB6113F8015C574B54F8B9
:1019F00025209A4202D3564B9A4216D33B692BB10B
:101A0000386A0EF0E5FF00287FF477AF7B68002B83
:101A10004AD00F2E3ED94F494F4A50484FF4896360
:101A20000FF09CF84FF4896180E63B692BB1386A6E
:101A30000EF0CEFF00287FF460AF1BF0010F0BD03B
:101A40000F2E27D94349444A444840F23E430FF001
:101A500085F840F23E4169E61BF0040F3FF44DAFBC
:101A6000B8F10F0F09D93E493B4A3C4840F2414387
:101A70000FF074F840F2414158E608F1280307F1ED
:101A8000280108F1010203EB010808F8105C5FFA75
:101A900082F832E706F1280307F12801721C5E186C
:101AA00006F8205CD6B228E7B8F10F0F09D92C4907
:101AB000294A2A4840F24B430FF050F840F24B417C
:101AC00034E608F1280307F1280008F1010218188C
:101AD00007F1500353FA82F208F1020800F8101CD3
:101AE0005FFA88F802F8105C07E700201EE71BF891
:101AF0000A3087F82F3054F82390FB6FFBB133F88E
:101B00001B80BA697B6A012107F12F0098470028E2
:101B10001ADB0544B8F1000F06D148460FF032FB3E
:101B200000F101081FFA88F8BA697B6A4146484605
:101B30009847002808DB05440BF1010B2CE7D7F888
:101B40007C80DEE7454616E6054614E6483401008B
:101B5000448B01006A4D0100174C01005345010000
:101B6000894D0100014B1860704700BF2000002024
:101B700030B587B00025CDE903010446009503A9DF
:101B80000548059500F00AF8DDE904309842B8BF31
:101B9000255407B030BD00BF1F0A01002DE9F04FEA
:101BA000814695B08B4617461C460025387808B903
:101BB000284658E37B1C2528039306D05946C8477E
:101BC0000028C0F250830135FBE1182200210EA845
:101BD0000FF0FAFA7B78252B7DD00023781C9846ED
:101BE0009E469C461E46014610F8012B2B2A00F00B
:101BF000A18000F29880202A00F09F80232A00F024
:101C00009F802BB19DF8403043F040038DF8403069
:101C1000B8F1000F05D09DF8403043F020038DF857
:101C20004030BEF1000F05D09DF8403043F0100366
:101C30008DF84030BCF1000F05D09DF8403043F0E6
:101C400008038DF840302EB19DF8403043F0040376
:101C50008DF840309DF8403003F04400442803D113
:101C60006FF386138DF840309DF840302A2A43F0F8
:101C700080038DF840307FD19DF8412042F0010271
:101C80004B1C8DF841201A782E2A9DF841200CBF5C
:101C90000121002161F341028DF8412078D15A7869
:101CA0002A2A6ED0013300224FF00A0C194611F88F
:101CB000010BA0F13006092E40F295809DF84010EE
:101CC0001292C1F3400040EAD2700A4660F341022A
:101CD0008DF840205CE0BA1C03928DF843309DF8EB
:101CE0004130DA0740F12E8154F8048BB8F1000F2F
:101CF00007DA9DF8402042F004028DF84020C8F138
:101D000000085E0740F1278154F804ABBAF1000FD8
:101D100080F226819DF841306FF341038DF8413008
:101D20004FF0FF3A1CE12D2A0DD0302A7FF469AF25
:101D3000012358E74FF0010C55E74FF0010E52E731
:101D40004FF001084FE701264DE70EFB0262303AE3
:101D50000346184610F8016BA6F1300CBCF1090FD0
:101D6000F3D999428FD09DF840101192D20F62F3AF
:101D700041018DF8401086E70B4600224FF00A0E15
:101D8000E7E79DF8412042F004028DF8412002333C
:101D90001A786C2A47D02BD8682A31D06A2A4BD0BF
:101DA0004C2A51D01A4612F8013B0392782B9DF829
:101DB00041208DF8433000F2BE806D2B51D8692B45
:101DC00000F2B980572B67D8412B03D0453B022B3B
:101DD00000F2B1809DF84230042262F302038DF8D4
:101DE0004230012373E00CFB0202303A0B465DE700
:101DF000742A25D07A2AD5D19DF8412006210CE0FD
:101E00005A78682A9DF8412006D1012161F3C60263
:101E10008DF841200233C5E7022161F3C6028DF837
:101E200041200133BEE75A786C2A9DF8412001D148
:101E30000421EBE70321F0E79DF841200521ECE7C1
:101E40009DF841200721E8E7BDF8402022F4F04248
:101E500022F0020242F4804242F00202ADF8402039
:101E6000DFE76E3BD9B201238B4040F282410B4247
:101E700037D113F0240F51D1D8075CD59DF84230EB
:101E8000032161F302038DF8423002F07803A3F1DD
:101E900040014B424B411AE0A3F15801C9B2012065
:101EA00000FA01F111F4624F94D140F6010631427B
:101EB0001DD111F4043F3ED09DF8423060F302037F
:101EC00002F07802402A8DF8423034D000239DF889
:101ED0004020C2F340010B4363F341028DF84020E0
:101EE000FDE69DF84230022161F30203E8E79DF828
:101EF0004210022002F0780260F30201402A8DF8BD
:101F0000421002BF9DF8401041F001018DF84010D1
:101F1000632BDBD1131E18BF0123D8E79DF8423095
:101F2000032161F3020312F0780F8DF8423014BFE1
:101F300001230023CBE79DF8403043F001038DF8E7
:101F40004030C3E79DF94020002AB4BFDDF844804B
:101F50004FF0FF38D5E698077FF5E2AEDDF848A0F0
:101F60009DF841100023CDE911339DF8423003F074
:101F70000703012BC1F3C30133D1CB1E042B04D8BB
:101F8000DFE803F0214646212100236801294FEABA
:101F9000E372CDE90E321CD19DF93830DA17CDE964
:101FA0000E3204349DF8403013F0030650D0039BEA
:101FB0003A46594648460EF0B1FD0028C0F253811A
:101FC0000544039FF2E554F8043BDA17CDE90E32DD
:101FD000E8E70229E5D11AB243F3C033CDE90E2375
:101FE000DFE7022B24D1CB1E042B04D8DFE803F05B
:101FF000181010181800012954F8043B4FF0000283
:1020000014D00229CDE90E32CCD19BB20E93C9E790
:10201000073424F00704F4E80223CDE90E23C1E7D6
:1020200054F8043B0E9300230F93BBE7DBB2CDE7DC
:10203000042B08D1073424F00704D4E90023083422
:10204000CDE90E23AEE7032BACD154F8043BDDE71A
:102050009DF843007828B4D862281CD825283FF47E
:10206000ADAD5828ADD10DF136030093DDE90E0179
:1020700008AB10AA0EF00CFDBAF1000F074680F273
:102080009A80002F9DD00DF13603D81B002E00F052
:10209000C1800130BEE06338152892D801A252F801
:1020A00020F000BF792100008B210000C31F000039
:1020B000C31F0000C31F0000C31F00008B210000CE
:1020C000C31F0000C31F0000C31F0000C31F000088
:1020D00019220000B1210000D7210000C31F000019
:1020E000C31F0000FD200000C31F0000B12100003D
:1020F000C31F0000C31F0000B1210000BAF1000F90
:102100000E9F35DB514638460FF08DF807EB000A7D
:10211000002F3FF456AF00269DF8423013F0100216
:10212000059200F0938002305B06119A48BF129B23
:102130000492104448BFC018B8F1000F40F3A080CB
:102140009DF84020A8EB0008C2F3800350070693D7
:1021500000F19680510640F189803EB159463046E3
:10216000C84700287FDB069B01351E4630227EE0F3
:1021700038460FF007F8C9E70E9B8DF8203000268F
:1021800008AF0DF1210A0120C6E719075CBFC3F3B0
:1021900000135E01DDE90E2348BF2B26002BBFF69E
:1021A00062AF524263EB4303CDE90E232D265AE77B
:1021B000002658E700269DF840200DF13603DB1B72
:1021C0006FF386129A458DF840207FF65AAFAAEB3E
:1021D0000303119355E70E9890B30DF13603009366
:1021E00010AA08AB00210EF053FCBDF8423003F0FA
:1021F000EF0343F4F04343F01003BAF1000F074636
:10220000ADF84230D6DA00283FF4DBAE0DF13603EC
:10221000181A00269A467FE70E9B07293FF6D1AE93
:10222000DFE801F00C04060C08080C0C1D70C8E671
:102230001D80C6E6EA17C3E90052C2E61D60C0E68B
:102240002E4F064607F1050A052065E71A0748BF25
:10225000013069E70793104606925946C84700289F
:10226000DDE9062304DA15B0BDE8F08F20224346ED
:102270001946002903F1FF33ECDC45446D1A9846FA
:102280002EB159463046C8470028ECDB01359DF891
:102290004230DA0601D41B0705D559463020C8471D
:1022A0000028E0DB0135059B33B19DF8430059461A
:1022B000C8470028D7DB0135049E2E4405E0594667
:1022C0003020C8470028CEDB0135731B002BF6DC1D
:1022D00053463A46594648460EF020FC0028C2DBD9
:1022E0000544A844A8EB0503002B7FF76AAE5946C6
:1022F0002020C8470028B6DB0135F3E7BA4D0100BE
:1023000038B50D460446202200210EF05DFFEB6833
:10231000E361AB68A3612B6823626B686362002290
:10232000A2622A6923B1591E194208BF42F0010274
:1023300022610122002104F12C0010F0DDFF48B1E0
:1023400005490648064A2E230EF008FC04482E21B3
:102350000EF0FBFB38BD00BFE64D01005345010008
:10236000C04D01002DE9F04F89B0CDE90123436A4A
:1023700000278B420446884605970797BA4655D3EF
:1023800000F114064FF0200BEFF3118300938BF351
:102390001288BFF36F8F3046DDF800900DF06CFCB3
:1023A00058B94B4A4B494C4888230EF0D7FB31466D
:1023B0004A480EF0D3FB882160E030460DF07AFCED
:1023C000079A2AB1394620460EF0A7FC002307934E
:1023D00006A920460EF0CFFB0699414505462ED3AF
:1023E0002268236A13F8221021F0030103F8221057
:1023F00003EB820A2168424620460EF0E0FBE368C8
:102400002060984216D0002530460DF043FC40B3C2
:1024100089F31188BFF36F8F059929B1A2690AB1B9
:102420002046904700230593002DADD1504609B0BA
:10243000BDE8F08F236943F008032361E3E718B197
:1024400020460EF0D6FBDFE7DDE90132134337D03B
:10245000039110F05DFF039990BB30460DF01AFC1C
:1024600078B91B4A1E491C4840F231130EF076FB26
:1024700031461C480EF072FB40F2311114480EF048
:1024800064FB009B83F31188BFF36F8FDDE90123A9
:1024900004F12C000CF0F8F80546EFF311898BF3EA
:1024A0001288BFF36F8F30460DF0E6FB00283FF433
:1024B00078AF3046B5FA85F50DF0FCFB6D09A3E762
:1024C00007AB05AA204627680EF0B0FB05469BE740
:1024D000EF4D01001C4E010053450100314E01003B
:1024E000474E01005E4E01002DE9F0410446C369EC
:1024F00008460E46984704F114050746EFF3118885
:10250000202383F31288BFF36F8F28460DF0B4FBAE
:1025100068B91B4A1B491C4888230EF01FFB29463B
:102520001A480EF01BFB882115480EF00EFB2846BA
:102530000DF0C0FB337843F00103337061683A4615
:1025400020460EF03CFB606020460EF001FC284661
:102550000DF0A0FB68B90A4A0D490B4840F231134F
:102560000EF0FCFA29460B480EF0F8FA40F2311151
:10257000DAE788F31188BFF36F8FBDE8F08100BF01
:10258000EF4D01001C4E010053450100314E01008A
:10259000474E01005E4E01002DE9F843044600F16C
:1025A0001407EFF31188202383F31288BFF36F8F92
:1025B00038460DF061FB054668B9354A354936485D
:1025C00088230EF0CBFA394634480EF0C7FA88213A
:1025D0002F480EF0BAFA38460DF06CFB2369A2685A
:1025E00013F0080F02D163689A4200D9636A9B1AFC
:1025F000002B3FD0216A11F8223013F0030001EBC9
:1026000082093AD0022803D151F82260B60805D1D8
:10261000D8071FD4E369484698470646A168324662
:1026200020460EF0CCFA3146A06020460EF0D5FAD6
:1026300038460DF02FFB10BB154A1949164840F2D9
:1026400031130EF08BFA394616480EF087FA40F235
:102650003111BDE743F0020301F822304846E36937
:10266000A56898472946024620460EF0A8FA00259C
:10267000A060DDE71D46A946DAE70546FBE788F3DB
:102680001188BFF36F8F002D8BD14846BDE8F883CA
:10269000EF4D01001C4E010053450100314E010079
:1026A000474E01005E4E01002DE9F0410446C3692A
:1026B00008460D46984704F114060746EFF31188C3
:1026C000202383F31288BFF36F8F30460DF0D4FAC6
:1026D00068B9284A2849294888230EF03FFA31462C
:1026E00027480EF03BFA882122480EF02EFA304699
:1026F0000DF0E0FA2B786FF300032B7023699B0732
:1027000005D5E268236A03EB82039D4222D12B7830
:102710006FF341032B70D4E90231994204D13A4658
:1027200020460EF04CFAA060394620460EF055FACD
:1027300030460DF0AFFA90B90E4A12490F4840F2F8
:1027400031130EF00BFA31460F480EF007FA40F243
:102750003111C9E72B6867F39F032B60E8E788F323
:102760001188BFF36F8F04F12C00BDE8F0410BF02E
:1027700033BF00BFEF4D01001C4E01005345010067
:10278000314E0100474E01005E4E01002DE9F84F29
:1027900004460846A38B1907154612D4022803F0F5
:1027A000070165D120460EF0EDFA88B10138042802
:1027B00000F23781DFE810F05C0035018200D400C0
:1027C000040101280CBF43F0100143F02001A18354
:1027D000143420460DF05EFA002840F09D819A499D
:1027E0009A4A9B4840F231130EF0B8F92146B1E005
:1027F00003F00702501F01281ED80020062A276870
:10280000C4E9000014D13A4603E0E08B0130E083D4
:102810001268002AF9D123F0070343F00202A283D1
:1028200020460EF0AFFA90B342F02002A2832EE0D1
:1028300023F007039AB2F2E7042A33D123F0070307
:102840009AB2A28320460EF09DFA10B142F0200207
:10285000A283A38B03F00709894540F0EC80A18B8C
:10286000CA0640F1508121F01003A38301F0070153
:10287000D4F81880A38BB8F1000FB9DA00222768CA
:1028800023F00703C4E9002243F00103A383A38BD1
:1028900003F00709894540F0CF80002FDFD00026E4
:1028A000B24644E06B496C4A694840F21B130EF093
:1028B00055F940F21B1168480EF047F949B16749D4
:1028C000654A63484FF4AB730EF048F94FF4AB71AF
:1028D000F1E723684BB962495F4A5D4840F25713FC
:1028E0000EF03CF940F25711E5E723691E684EB936
:1028F0005C49594A56484FF4AD730EF02FF94FF426
:10290000AD71D8E7A38B23F0070343F006039BB216
:10291000A3830F4688464FF00609A268002A40F0BC
:102920008D80002F40F08D80002E98D0BA4643F065
:10293000080304F1140BA38358460DF0ABF90028EB
:1029400040F09A804049414A414840F231130EF02C
:1029500005F9594644480EF001F940F23111ADE055
:10296000022909D041493C4A394840F25D130EF032
:10297000F5F840F25D119EE7E78B4FB13C49364ACE
:1029800033484FF4AF730EF0E9F84FF4AF7192E7AC
:1029900023695E684EB933492F4A2D4840F26113CE
:1029A0000EF0DCF840F2611185E7A38B23F00703FA
:1029B00043F004039BB2A383B8464FF00409ACE78D
:1029C000012909D02B49244A21484FF4B2730EF053
:1029D000C5F84FF4B2716EE723684BB920491E4A1F
:1029E0001B4840F265130EF0B9F840F2651162E73A
:1029F00023699E684EB91B49174A15484FF4B473B2
:102A00000EF0ACF84FF4B47155E7A38B23F0070335
:102A100043F005039BB20027A383B8464FF0050996
:102A20007BE70C490C4A0A4840F26B130EF096F80B
:102A300040F26B113FE7002700266EE74FF0010AD6
:102A400075E7924673E700BF474E0100EF4D010066
:102A500053450100DF790100734E0100984E0100DB
:102A6000A44E0100C74E01005E4E0100DE4E010083
:102A7000F44E0100034F010085F31188BFF36F8FFF
:102A8000BAF1000F1CD177BB16B126492046B047DA
:102A9000EFF31185202383F31288BFF36F8F58461D
:102AA0000DF0EAF838BB204A2049214888230EF06F
:102AB00055F859461F480EF051F888211A48FBE690
:102AC000A1680029DFD00D680029DCD0D1F804A06E
:102AD00043464A462046D0471DB12B6829461D462D
:102AE000F2E72B46FAE7394643464A4620463F6816
:102AF0000EF074F9C7E758460DF0DCF8A38B23F00D
:102B00000803A383ABE68B067FF562AE21F02003BA
:102B1000A38301F0070145E685F31188BFF36F8FAA
:102B2000BDE8F88F392B0000EF4D01001C4E01006D
:102B300053450100314E0100F8B504460D4600F141
:102B40001406EFF31187202383F31288BFF36F8FEE
:102B500030460DF091F868B90C4A0D490D488823AC
:102B60000DF0FCFF0C4831460DF0F8FF07488821B6
:102B70000DF0EBFF30460DF09DF8A5613A4620467A
:102B80000121BDE8F840FFF701BE00BFEF4D010095
:102B90001C4E010053450100314E01002DE9F04764
:102BA00004460F460EF00AF9051E68DB04F114090D
:102BB000EFF3118A202383F31288BFF36F8F484607
:102BC0000DF05AF8804660B9384A394939488823A7
:102BD0000DF0C4FF494638480DF0C0FF8821334846
:102BE00042E048460DF066F8E38BA68B4FF6FF7285
:102BF000934206F0070645D0022E15D10133E38338
:102C0000354648460DF046F8002841D1274A2B4961
:102C1000284840F231130DF0A1FF494628480DF035
:102C20009DFF40F23111DAE7062E13D8DFE806F0F7
:102C3000092D1212090409006FF085054FF00008F4
:102C4000DFE700233B60636883B9C4E9007786B19E
:102C50003546F3E71B4917481B4A4FF4E4730DF060
:102C60007DFF19484FF4E4710DF06FFF1F6067603E
:102C7000EDE7524602212046FFF788FD35462846FB
:102C8000BDE8F0876FF00A05D8E76FF00405D5E7D7
:102C90008AF31188BFF36F8FB8F1000FEFD00023D4
:102CA0003246394620460EF099F8E8E7EF4D01002C
:102CB0001C4E010053450100314E0100474E0100FA
:102CC0005E4E0100034F0100734E010008B54268DB
:102CD000816002F00302032A034602D02AB10020D9
:102CE00000E0006800225A6008BD05490548064A10
:102CF00045230DF033FF044845210DF026FF00BFAA
:102D0000DF79010053450100194F010030B510492A
:102D1000104889B0002210F03FFB0F4D0F490022F0
:102D20000023CDE9062300240E23CDE90334CDE9A9
:102D300001440B4B00944FF4006228460BF0DEFD7B
:102D4000084928460BF054FD204609B030BD00BFAD
:102D5000AD2E0000F042002038020020406D00201F
:102D60009D3100003F4F01002DE9F047DFF858800A
:102D7000044607464FF0010914B93846BDE8F0870C
:102D800094FAA4F5B5FA85F509FA05F32E0108EBD6
:102D900005156FEA030A24EA03042B7B002BEBD012
:102DA00058F806301B694BB946440422736828461C
:102DB000196807EA0A0700F0F9FADDE7284698479C
:102DC0000028D9D1F0E700BF0C3701002DE9F0470A
:102DD000DFF8B8902E4CA9EB04038F2B80460F46EA
:102DE0000BD92C492C4A2D4840F23F130DF0B6FE6A
:102DF00040F23F1128480DF0A8FE29480EF03DF89A
:102E0000064660B300252846BDE8F087237B6BB1FA
:102E10002368DB680BB12046984723681B69B3B968
:102E2000636804221968204600F0C0FA01361034A5
:102E30004C4518D91B49184A18484FF4A6730DF091
:102E40008DFE19480DF08AFE4FF4A671D2E7204698
:102E500098470028E4D00AFA06F31D43E6E7054642
:102E60004FF0010AE4E7D1D3B8F1000FCBD0002D29
:102E7000C8D02846FFF778FF0546002FF7D000217D
:102E80004FF4A4700CF01CFDF1E700BF2C370100DB
:102E90000C370100744F0100474F010053450100FA
:102EA00034460020A44F0100C54F010001480BF03B
:102EB00093BB00BF28020020014B53F8200070474D
:102EC0008437010008B5034608462BB1044A136055
:102ED00000F0A2FD002008BD6FF01500FBE700BF69
:102EE0002400002010B5044C237813B903480BF0DC
:102EF00073FB0123237010BD7048002028020020BE
:102F000010B5044608480DF0B8FF5CB1BFF35B8F05
:102F1000064B53E8001F013943E80012002AF8D19C
:102F2000BFF35B8F10BD00BF2C4600203046002051
:102F30000020064BBFF35B8F014653E8000F43E8C8
:102F40000012002AF9D1BFF35B8F70472C46002096
:102F500070B5FFF7EDFF104C104E0546B44219D97D
:102F60000F49104A104840F2F5130DF0F7FD0F48D5
:102F70000DF0F4FD0B4840F2F5110DF0E6FD63682D
:102F80005B792BB123685B6813B1294620469847CB
:102F90001034E3E7F3D370BD0C3701002C37010088
:102FA000A44F0100474F010053450100C54F0100E8
:102FB00010B5044C04492046FFF7A2F9034B1C60EE
:102FC00010BD00BFD401002070370100244600204E
:102FD000084A094808B500231370084A1360084AD4
:102FE0004FF400411360FFF76DFFBDE80840FFF7A5
:102FF000DFBF00BF71480020770E01002C46002083
:10300000304600200146002201480023FFF7AAB9FC
:10301000D40100200148FFF7BFBA00BFD40100204F
:10302000024B01461868FFF73FBB00BF2446002053
:1030300001480DF09ABE00BFD401002070B5304B9E
:10304000187800285BD0FFF7E5FF054660B3BFF3B3
:103050005B8F2C4B53E8001F013943E80012002A14
:10306000F8D1BFF35B8F284C284EB44218D92849B9
:10307000284A294840F2E9130DF070FD27480DF069
:103080006DFD244840F2E9110DF05FFD63685B7946
:1030900023B1236829461B68204698471034E4E78B
:1030A000F4D32846FFF7BCFF1D4B1E4C1B68002BBA
:1030B00019DD10F06FF94FF47A72A0FB020302FBE6
:1030C0000131C30BD4E9002043EA41439B1A4FEA84
:1030D000D13140F2E93261EB0001934271F100011C
:1030E00001D3FFF735FFD4E9003213F57A7342F1CB
:1030F0000002C4E90032BDE87040FFF799BF70BD1F
:1031000070480020304600200C3701002C370100A9
:10311000A44F0100474F010053450100C54F010076
:103120002C460020E842002070B5154D297829BBB7
:103130000120FFF74BFE134C134EB44217D913492D
:10314000134A14484FF4D7730DF008FD12480DF0E0
:1031500005FD0F484FF4D7710DF0F7FC63685B79FC
:103160001BB1236820469B6898471034E5E7F5D3E8
:10317000FFF764FF0028FBD101232B7070BD00BF57
:10318000714800200C3701002C370100A44F0100CA
:10319000474F010053450100C54F01002DE9F0479D
:1031A0002F4B304FFB1A1B090BD12F492F4A3048A8
:1031B00040F283330DF0D2FC40F283312B480DF006
:1031C000C4FC00210846FFF701FE044640B340F26C
:1031D00067684FF000090CF0A9FB264B186030B16E
:1031E000254B1B68092B02DD24480BF0F5F9DFF8AD
:1031F0008CA0002544B12046FFF7B6FD044618B95F
:103200004FF0FF384FF0FF39FFF718FF064628B997
:103210005DB942464B4650460BF036FA3546E9E773
:103220004FF0FF384FF0FF39D5E70D4D08E0F0D2F1
:103230002B689B691BB10022114628469847103520
:10324000BD42F4D90E49094A094840F277330DF0DE
:1032500085FC0C480DF082FC40F27731AEE700BFF0
:103260000C3701002C370100E44F0100474F0100EB
:103270005345010028460020304600202802002047
:10328000A44F0100C54F010013B52C480DF0F5FD0A
:103290002B4B1B78002B35D0EFF31184202383F3C5
:1032A0001288BFF36F8F27480CF0E6FC68B9264AF6
:1032B0002649274888230DF051FC224925480DF066
:1032C0004DFC882120480DF040FC1E480CF0F2FC1B
:1032D000FFF7B4FE1B480CF0DDFC68B91A4A1E4922
:1032E0001B4840F231130DF039FC16491B480DF014
:1032F00035FC40F23111E5E784F31188BFF36F8F9D
:1033000002B010BD164B1B68002BF9D050B900223B
:103310000023CDE9002313484FF4004200230CF0B2
:10332000F9FFEDE70928EBD10E4810F041F80E48FF
:1033300002B0BDE810400BF04FB900BF304600208E
:103340007148002020460020EF4D01001C4E010076
:1033500053450100314E0100474E01005E4E010011
:1033600028460020F04200202802002010B5064B1D
:103370001B68044698472146A0600448FFF7B4F84C
:10338000BDE81040FFF780BF24000020D4010020DA
:10339000044A054B9B1AB1EBD30F34BF52F83100EE
:1033A00000207047AC3601000C3701000E4BC31AE9
:1033B0001B11013310B5DBB248B90C490C480D4A5A
:1033C000DF230DF0CBFB0B48DF210DF0BEFB446883
:1033D000237143689A7143681960436801225A71E6
:1033E000BDE81040FFF77EBD0C370100845001009E
:1033F000534501004C5001002DE9F04F8FB004AF50
:10340000C1F34A28B8600D4691467B600C0DB8F1B7
:10341000000F68D0002607F114034FF0040B4FF0A3
:103420000A0AC7F80C80C7E907667E620193CDF8E7
:1034300008B0CDF800A007F11C03F96832464846F1
:10344000FEF760F9B0F5006F03461CD36C468AB0F6
:10345000D9F8041004AB2C48C3E9050140F2FF7110
:10346000D9611A464FF400711984284B42F8103F75
:10347000274833464FF41251FFF7BEFFA5462C37BD
:10348000BD46BDE8F08FC0F30A0804F117001844E8
:1034900020F0070080083B60FFF7B4FD68F3532578
:1034A000044640B33B681B4AC7E9083600F11001E7
:1034B00007F11403F961CDE900A3CDF808B0F9686C
:1034C00007F11C034846FEF71DF9002813DA1249DC
:1034D0001248134A4FF4A2730DF040FB10484FF40A
:1034E000A2710DF032FB04F1170020F007008008F4
:1034F000FFF788FD044668F353257B68B9682A46C0
:1035000020460DF0F0FCBAE7A450010004000001D1
:10351000C4360100BB0E01001051010053450100EB
:10352000E35001002DE9F04F87B0DDE91269DDE9D4
:10353000105A04460F4693469846BEB11021CDF866
:103540000090334652460020CDF81490FDF7C4FE9B
:10355000011E0CDA2149224A224840F263130DF081
:10356000FDFA40F263111E480DF0EFFA314605F105
:10357000170008441C4B039104F007040BF0070BE1
:10358000E40020F0070003EA412344EA8B1480089A
:103590001C43FFF737FD44EA05540546A0B19EB130
:1035A0000399CDF80090334652461030FDF794FE53
:1035B000002809DA09490A4A0A4840F27D130DF049
:1035C000CDFA40F27D11CEE74346224639462846E1
:1035D00007B0BDE8F04F0DF086BC00BF0F510100F1
:1035E000E35001005345010000FE0F00406820B188
:1035F000034BC01A40F3CF0070474FF0FF307047C5
:10360000AC3601000EB403B503AB014653F8042BEE
:10361000044801930DF0E3FC02B05DF804EB03B045
:10362000704700BF45360000CA0605D48B064CBF64
:1036300002490349FFF7E6BF704700BFCE8501008E
:103640001951010038B54B681A68CB689A42054693
:103650000C4602D108460DF0C9FC6368BFF35B8FCE
:1036600053E8002F511C43E800100028F8D1BFF3A5
:103670005B8FA3689D5463681A68E3689A4209D90E
:1036800005490648064A7A230DF068FA04487A216B
:103690000DF05BFA002038BD4B510100534501008D
:1036A0001C5101002DE9F04F89B09B46149B0693F5
:1036B0009DF84CA0159B0593169B179E04930446FA
:1036C0000D469046BAF1000F00F0AD80BAF1040F3C
:1036D0000BD9A349A34AA44840F262230DF03EFA55
:1036E00040F262219F480DF030FA06F48073079390
:1036F0000DF0E1FB06F00209024600283FD09B498D
:103700002046FFF77FFF0746B9F1000F08D016F0FB
:10371000440F36D196492A462046FFF773FF0744E7
:1037200006F0010353B1934B934953F82A20934B6E
:103730002046002A08BF1A46FFF764FF06F480738C
:10374000002B4AD006F00803002B64D1B8F1000F1B
:1037500067D08B4942462046FFF754FF0546069B3B
:103760003D44002B6ED1049B002B40F08380F30777
:1037700000F1F08031462046FFF756FFE4E00746AF
:10378000C2E7804B18680028C9D07F4B4FF47A7984
:103790001B68B5FBF3F54FF46161B5FBF0F300FB7B
:1037A000135509FB05F54FF03C0CB3FBF1F201FB9F
:1037B0001231B5FBF0FEB1FBFCF300FB1E550CFB18
:1037C000131109FB05F50091B5FBF0F56F49CDE943
:1037D00001E52046FFF716FFA1E706F00803EBB16D
:1037E0006B4B6C4953F82A202046FFF70BFF054628
:1037F000B8F1000F05D0624942462046FFF702FFAC
:103800000544BBF1000FAAD063495A462046FFF792
:10381000F9FE0544A3E74FF0000BE1E706F00805C9
:10382000E6E745469BE7BBF1010F069B06D1DBB9F6
:10383000049B002B00F0888000251BE0002BF7D0B4
:10384000564812E05648069B564922460DF08FF81E
:1038500000280CDA5449434A43484FF42F730DF0C3
:103860007DF94FF42F713DE74D485546EBE7049B3A
:10387000002B65D0DFF83481DFF83491049F3146A6
:10388000102F204628BF1027FFF7CEFE4FF0000B69
:103890005D4542DC059B49461A782046FFF7B2FE9B
:1038A0004FF0010B1BF0070F03D141462046FFF7F5
:1038B000A9FE5F4538D9059B494613F80B202046E1
:1038C000FFF7A0FE0BF1010BBBF1100FEAD1394954
:1038D00020464FF0000BFFF795FE5A46059B9A5C79
:1038E000A2F120015F2928BF2E2233492046FFF78D
:1038F00089FE0BF1010BBBF1100F1AD01BF0070F63
:1039000003D141462046FFF77DFE5F455A46E5D884
:1039100041462046FFF776FEEBE741462046FFF79B
:1039200071FE0BF1010BB3E724492046FFF76AFE55
:10393000C8E7059B3B440593049BDB1B04939DD187
:10394000BAF1000F7FF413AF204609B0BDE8F04F85
:103950000DF04CBB094A08492046FFF753FE09E722
:10396000805101001C510100534501008C510100A0
:103970009051010094370100024801007B51010081
:10398000B55101003C460020384600209951010005
:10399000A8370100B9510100BF5101000710010013
:1039A00045360000DF0F0100C4510100D551010070
:1039B000CD510100D7510100D9510100D35101006F
:1039C00073B542F20F738B4228BF0B4605680F4A4E
:1039D0000446052168460DF044F863680C495B68AD
:1039E00006460B2228460DF0EDFA6368324669461A
:1039F00028465B680DF0E6FA636806495B681B229F
:103A000028460DF0DFFA02B070BD00BFAB7A0100AE
:103A1000F8510100DC510100074A002101239042C6
:103A200006D8064A01B901231360054B1860704798
:103A300040085B000121F2E740420F0038460020B9
:103A40003C460020014B01221A707047724800204A
:103A5000014B00201960704754460020024B034878
:103A600001221A700DF0C2BA73480020D837010045
:103A70000148FFF7A5BF00BFD837010010B5064BBE
:103A800018680C46FFF718FA21460346BDE81040B7
:103A900002480F22184700BF54460020D8370100C3
:103AA00010B9074B18707047064B1B781BB141F2D9
:103AB00088300FF0DFBBA42000210BF001BF00BF56
:103AC00072480020734800202DE9F843DFF8749015
:103AD0001D4F80460E46042499F8005095B904F015
:103AE000FFFD28463246414604F0ACFD054604F091
:103AF00001FEE5B101233B7099F8003073B93046FF
:103B0000BDE8F88332464146002004F09BFD05469F
:103B1000EFE72046FFF7C4FF651E2C46002004F0A7
:103B2000D5FD0028EBD03B78002BF2D1E7E73B78BE
:103B3000002BE4D0013C2046FFF7B2FF3B78002B7E
:103B4000CAD1DCE77348002072480020F8B5074F5F
:103B50000D4604464618B44201D12846F8BD14F873
:103B6000011BBB6801485B689847F4E7E434010037
:103B700010B543681C6809480FF080FB48B9084934
:103B80000848094A99230CF0E9FF074899210CF0ED
:103B9000DCFF23685B685C6010BD00BFE43401009B
:103BA0006E5201005345010030520100014B036089
:103BB000002070471C3801002DE9F047804600AF17
:103BC0000C46002936D0E9468AB0D1E90012A36834
:103BD0006D461C482E464FF0050AC5E90501C5E9AA
:103BE000072346F810AF1848324600234FF42151FE
:103BF000FFF702FCCD46D4E903126369AD461348D2
:103C0000C5F810A0C5E90501C5E907230E48002342
:103C100032464FF42151FFF7EFFBCD46E3690C4AE2
:103C2000094801210DF0B8F9A3690A4A06480121A3
:103C30000DF0B2F9214640460AF05EF9BD46BDE8F6
:103C4000F08700BFA2520100E4360100D15201000A
:103C5000005301000F53010030BFFFF7FDBF00BF4D
:103C6000074A936893F90E10002907DB52699342C3
:103C70001FBF044A536843F080535360704700BF2E
:103C80002C48002000ED00E070B5294C06460D469A
:103C9000284829490DF027FAA36AD9043CD52548BC
:103CA00026490DF020FA1720A36A1A0504D52148E9
:103CB00023490DF018FA18201D4CA36A9B0512D554
:103CC0001C4820490DF00FFAA36BA26A100409D515
:103CD0001D4A184801210DF05FF91EB1A36A23F4B3
:103CE0000043A3621920124CA36A590504D5114858
:103CF00016490DF0F8F91A20A36ADA050ED50D4819
:103D000013490DF0F0F91B20094A936A43F47F43ED
:103D1000936200232B7070BD1620C5E7A36A9B0435
:103D2000F2D504480B490DF0DEF91C20ECE700BF8A
:103D300000ED00E0E43601003D5301005353010063
:103D4000645301007753010090530100A553010013
:103D5000C0530100D853010010B5204C2049214820
:103D60000DF0C1F9A36A990136D51E481E490DF020
:103D7000BAF91E20A36ADA0104D51A481B490DF0CE
:103D8000B2F91F20154CA36A1B0304D51548184926
:103D90000DF0A9F92120A36A590304D5114815494A
:103DA0000DF0A1F922200D4CA36A9A0304D50D4809
:103DB00011490DF098F92320A36ADB0304D50948C3
:103DC0000E490DF090F92420044A936A6FEA0343E8
:103DD0006FEA1343936210BD1D20CBE700ED00E0B6
:103DE00007540100E43601001F5401003254010061
:103DF0004C5401006A5401008F540100A954010081
:103E00002DE9F8433F4D804689463F483F491746D4
:103E10000DF069F9AB6ADA0627D53D493A480DF04D
:103E200062F91124AB6A1B0704D53A4936480DF0F4
:103E30005AF91224334DAB6A9E0718D536493248D9
:103E40000DF051F96E6BAB6A1C0646D5334A2E480D
:103E5000334601210DF0A0F8B9F1000F03D0AB6A91
:103E600023F08003AB62132403E01024DAE76FF041
:103E70001506244DAB6AD80704D5294922480DF010
:103E800032F91424AB6A990604D526491E480DF070
:103E90002AF915241B4DAB6ADA0602D4AB6A9B07DC
:103EA0000AD56B68180507D54146304600F0A4FADC
:103EB000B0B180F309880224124B9A6A920642BF7D
:103EC0005A6A22F400525A629A6A42F0FF029A62D7
:103ED00000233B702046BDE8F8836FF01506C2E76B
:103EE000AB6AD906E8D51049104A114840F25D1373
:103EF0000CF034FE0F480CF031FE0C4840F25D111E
:103F00000CF023FE00ED00E0E4360100D454010083
:103F1000EA540100645301001D55010035550100AC
:103F20004B550100D85301009C5501006A55010012
:103F300053450100E6550100F0B5764B8BB00546C0
:103F4000586800AFC0F30803002686F31188BFF35A
:103F50006F8F02F07F44B4F17F4F07D102F00C0461
:103F6000082C12D16C496D480DF0BDF86C496D4AB2
:103F70006D484FF48B630CF0F1FD6C480CF0EEFDD6
:103F80004FF48B6167480CF0E0FD14074CBF0D4601
:103F90000126002DEAD00022FA71DA1E092A00F269
:103FA0009880DFE802F0058E917196969696969429
:103FB0005F495A48574C0DF096F80023FB71E36AAD
:103FC0009A0705D55B4955480DF08DF8002429E086
:103FD000E36A002B01DA5849F5E7E36A5B0063D531
:103FE00056494E480DF07FF86369AA6943F480731F
:103FF0006361BFF34F8FBFF36F8F636932F8022C99
:1040000023F480736361BFF34F8FBFF36F8F4DF65F
:1040100002739A4221D12B68494A404801210CF091
:10402000BBFF2C68FB79ABB92022294607F10800B9
:104030000DF0BFF87B6A002E67D0C3F3080222B9E7
:104040006FEA53236FEA43237B6207F1080120469E
:10405000FFF7B2FD2C37BD46F0BDA36ADBB233B12A
:10406000FA1D01212846FFF7CBFE0446DAE7A36AD2
:1040700013F47F4F04D0F91D0120FFF705FEF4E78C
:10408000A36AB3F5803F02D3FFF766FEEDE72D4943
:10409000244A254840F22A330CF060FD2A480CF0EF
:1040A0005DFD40F22A316DE726491E4A1E4840F266
:1040B0002E330CF053FD25480CF050FD40F22E310C
:1040C00060E7FA1D0021CDE7F91D0020D5E7204962
:1040D00079E7204A204910F4F87F6C468AB018BF6F
:1040E00011466A46103BD3611C484FF40073138499
:1040F0001B4BC2E9050142F8103F084800234FF46A
:104100001151FFF779F9A54660E723F4FF7323F017
:10411000010399E700ED00E037560100E4360100A5
:10412000625601006A5501005345010075560100B1
:10413000B3560100CA560100EB560100F9560100C2
:1041400018570100DF79010034570100585701006A
:10415000885701001E56010009560100AC570100A6
:1041600004000001024A536943F010035361704791
:1041700000ED00E0EFF30880EFF3098101B572462E
:10418000FFF7DAFE01BD00BF02F0F4FC202080F34F
:10419000118808484FF40461401880F30988EFF350
:1041A00014800221084380F31488BFF36F8F00F05E
:1041B000E3F8000040960020084B9B6883420BD137
:1041C000EFF3058343B1064B5A6842F080525A60C0
:1041D0005A6A22F400425A620BF0AEBB2C4800200F
:1041E00000ED00E00A4A93686FF00A01C3F8A810D6
:1041F0000849C3F8A4004B6843F080534B60002388
:1042000083F31188BFF36F8F9368D3F8A8007047CA
:104210002C48002000ED00E010B50446EFF31183B8
:10422000202383F31288BFF36F8F0A4B586998607D
:10423000094B4FF000625A600022D0F8A430C0F859
:10424000A42083F31188BFF36F8F00F03BF9204661
:1042500010BD00BF2C48002000ED00E00B498A682B
:104260004FF030001044EFF3098C80E8F01F7446E3
:104270007046FFF7D1FFA64604498A6802F1300074
:1042800090E8F01F8CF30988704700002C4800204C
:104290001EF0040F0CBFEFF30880EFF30980816973
:1042A00011F8021C0229FFD001B50CF011FF01BD6D
:1042B00040B2002807DB044A4109012300F01F0037
:1042C000834042F82130704700E100E040B200280E
:1042D0000CDB4309064900F01F0020330122824015
:1042E00041F82320BFF34F8FBFF36F8F704700BF9C
:1042F00000E100E0054B420900F01F0053F82220C6
:10430000012303FA00F01040704700BF00E100E015
:1043100038B54B1C072B04460D460FD9114A1249DC
:10432000124858230CF01AFC11482946072322464C
:104330000CF014FC0B4858210CF007FC40B200288C
:10434000ACBF00F160400B4A4FEA4313B8BF00F026
:104350000F00DBB2AABF00F56140135480F80033B0
:1043600038BD00BFBF570100F6570100534501009B
:104370001158010014ED00E00F4A08B50F4B22F070
:104380007F029A60BFF34F8FBFF36F8FD3F88820FF
:1043900022F47002C3F88820EFF3148323F004039F
:1043A00083F31488BFF36F8F09F0CCFE0BF08AFC07
:1043B00000F05EF809F01CFF0000000000ED00E0D6
:1043C00042F8203C009B42F81C3C0A49019B42F801
:1043D000183C029B42F8143C21F001014FF080731D
:1043E00042F8043C42F8081C0023203A0265C0F859
:1043F000A43070477D0A01000A4A0346906878B1EC
:1044000013F1160FD0F8940005D0A0F140029A42A3
:1044100005D8834203D2814228BF00207047002084
:10442000704700BF2C48002008B50B4B0E461546C0
:10443000986000F047F82C4686F309884FF000009A
:10444000064B984720464FF000014FF000024FF016
:104450000003034C204700BF2C480020F710010048
:104460007D0A0100014B10221A61704700ED00E047
:10447000044800232021C2180133302B82F8001396
:10448000F9D1704700E100E008B5EFF30583064A73
:10449000103B02EBC30152F8330049688847BDE87E
:1044A0000840FFF7DDBB00BF20350100024B034A87
:1044B0000348012100F08CB8000002200000002019
:1044C0001C380100D0F89420054B403A1A60054A88
:1044D0004021C3E901121846012100F09FB800BF36
:1044E0007C46002000000B1508B503461048D0F8A4
:1044F0009020C2F30722013A934207D90D480E4A91
:1045000001210CF049FD6FF0150008BDC0F898308E
:104510000A6822F01F021A4342F01002C0F89C20E1
:104520008A6842F00102C0F8A0201846EDE700BFFB
:1045300000ED00E0DC36010055580100F0B50E46F4
:1045400085B01F4604460025B5420DDA606810B3F9
:1045500097B1431E18420AD0104A11482B46012138
:104560000CF01AFD6FF01502104605B0F0BD1F28C3
:10457000F2D921680B42EFD1236801930CF0DEFDE4
:10458000A36801A90343D0B20393FFF7ADFF10F175
:10459000160FE7D0421C01350C34D5E77B580100DB
:1045A000DC360100044B0522C3F89420BFF34F8F83
:1045B000BFF36F8F704700BF00ED00E0BFF35F8F68
:1045C000024B0022C3F89420704700BF00ED00E0CA
:1045D00038B50D4D01232A780C46FFF7AFFF287040
:1045E00016300FD1094A0A490A4840F269130CF003
:1045F000B5FA094821460CF0B1FA044840F26911B5
:104600000CF0A3FA38BD00BF854800209E58010079
:10461000DF79010053450100CD58010010B5144A5F
:10462000002312780C46FFF789FF10F1160F08D00F
:10463000104A0021D2F89030C3F30723984210DBD0
:1046400010BD0D4A0D490E484FF4C4730CF086FAA4
:104650000C4821460CF082FA07484FF4C4710CF064
:1046600074FAC2F89800C2F8A0100130E2E700BF67
:104670008548002000ED00E09E580100DF79010030
:1046800053450100F95801002DE9F0437A4C7B496C
:10469000D4F890300E68C3F307239E4285B013D937
:1046A000774A784978484FF4D0730CF057FAD4F829
:1046B000902076483146C2F307220CF04FFA4FF4AF
:1046C000D0716F480CF041FAFFF778FF496800227B
:1046D000964201F10C012AD16D4DDFF8B8812E70A0
:1046E0006846FFF763FA00260746B74232D12B78B7
:1046F00061490020D1F89020C2F307229342C0F212
:10470000B180FFF74FFFD1F89030C3F30723082B98
:1047100000F0AE8060495A4A5B484FF404730CF0D5
:104720001DFA5E480CF01AFA4FF40471C9E7C4F898
:10473000982051F80C3C23F01F03134343F010035F
:10474000C4F89C3051F8043C43F00103C4F8A03095
:104750000132BDE7009A02EB06133101D3F80C9049
:1047600009EA0804B4F5000F68D01AD8B4F5001FA0
:104770003ED0B4F5800F55D0B4F5801F21D0484A03
:10478000484801210CF0FFFB3E493D4A3E484FF4AA
:10479000E5730CF0E3F944480CF0E0F94FF4E571EF
:1047A0008FE7B4F1807F53D0B4F1007FE7D19868F0
:1047B0005C6852580CF0C2FCCDE9014240F4802004
:1047C0000AE098685C6852580CF0B8FCCDE90142E8
:1047D00040F0885040F430200390287801A9FFF77A
:1047E00083FE0028D0DB2B7801332B7001367CE769
:1047F00098685C6852580CF0A1FC40F0885040F476
:10480000002019F0010FCDE901420390E5D02749BE
:104810001B4A1D486C230CF0A1F925480CF09EF9A9
:104820006C214EE798685C6852580CF087FC40F0A9
:10483000E060CDE9014240F40030CDE798685C6863
:1048400052580CF07BFCCDE9014240F08270C3E786
:1048500098685C6852580CF071FCCDE9014240F058
:104860008870B9E7C1F89830C1F8A000013341E77A
:10487000002005B0BDE8F08300ED00E0283801001D
:104880009E580100DF7901005345010026590100BF
:10489000854800200000F0FFFB5901004B5A010041
:1048A000AF590100DC360100D15901005A5901000D
:1048B00080590100014B1860704700BF3000002094
:1048C0000CB410B586B009B90DF10B000024CDE988
:1048D000040109AB089A009404A905480393FDF765
:1048E0005DF9049B1C7006B0BDE8104002B0704733
:1048F000E11101000EB410B587B009AB00246FF0D0
:10490000004153F8042B04900591009404A9054834
:104910000393FDF743F9049B1C7007B0BDE81040FA
:1049200003B07047E111010008B5044904484FF491
:104930000042FCF745FC002008BD00BF40A4002059
:104940008846002008B509484FF0FF324FF0FF338A
:1049500009F0E2FC48B106490648074A7F230CF0FB
:10496000FDF805487F210CF0F0F808BD3400002068
:10497000B55A0100534501007B5A0100014809F076
:104980009BBD00BF3400002038B50546FFF7DAFFB5
:1049900007482A460821FCF78FFB044620B91DB1C1
:1049A00009F094FA0C230360FFF7E8FF204638BDB6
:1049B0008846002010B50446FFF7C4FF214603488F
:1049C000FCF734FBBDE81040FFF7D8BF8846002055
:1049D000044A0123C2F840354FF080420020C2F85B
:1049E0007835704700E0014020B1034B800143F06F
:1049F00001031847704700BF5037010037B50C4618
:104A00000A490B4A411A402300934911054623469F
:104A100008480CF011FC011E05DA2846234603B0B5
:104A2000BDE83040184703B030BD00BFA8460020A5
:104A3000A1120100A8340100C9B2012908B509D9A1
:104A400008490948094A7A230CF088F807487A216E
:104A50000CF07BF803690C2201FB0233986C00F028
:104A6000070008BD045B010053450100C75A01005F
:104A700070B5C9B2012903690BD918491848194AF8
:104A800040F25D130CF06AF8164840F25D110CF02C
:104A90005CF8EFF31185202484F31288BFF36F8F45
:104AA0000C2606FB0134A46C14F0C00408D0A2420A
:104AB00006D085F31188BFF36F8F4FF0FF3070BDC4
:104AC00071430B4401229A6485F31188BFF36F8F01
:104AD00043680B445B6898470020F0E7045B0100E3
:104AE00053450100C75A010070B50D460649411AE9
:104AF0000446491105484022FFF7BAFF2B460146FC
:104B00002046BDE870401847A8460020A8340100A0
:104B1000002270B5012104461046FFF7F9FB0F484B
:104B200002F08CF90E4B984215D102F097F92669E4
:104B30000C4930460CF068F900280BDB0125B56400
:104B40002469084904F120000CF05EF9002801DB1B
:104B50006565002070BD6FF00400FBE71D4C000090
:104B60000000AD0B483801001FB500220123CDE93C
:104B70000223094ACDF800D06B46CDF804D00CF0E2
:104B800088FB002805DB4FF480420023684609F0CB
:104B90007BFD05B05DF804FBB912010010B5EFF321
:104BA0001184202383F31288BFF36F8F074A1368A1
:104BB00023F00201DB07116002D4012002F0E6F9C4
:104BC00084F31188BFF36F8F10BD00BF0047002032
:104BD00030B4104B0C2202FB003301460020D3E915
:104BE00010521864EFF31180202484F31288BFF36D
:104BF0006F8F9C6C04F0C00444F002049C6480F34A
:104C00001188BFF36F8F1DB12B46034830BC184786
:104C100030BC7047A8460020A8340100012808B520
:104C200006D0042808D098B90F4B9B6C5B0719D1AC
:104C3000BDE80840FFF7CCBF0C490D4A0D4840F2D3
:104C40006E230BF08BFF40F26E2109480BF07DFFC5
:104C50000649074A074840F272230BF07FFF40F2F3
:104C60007221F2E708BD00BFA8460020DF790100ED
:104C7000C75A01005345010010B4EFF311822023FD
:104C800083F31288BFF36F8F1748016841F0020465
:104C90000460C80707D482F31188BFF36F8F012027
:104CA00010BC02F001B94FF08041D1F80C04D1F8EA
:104CB0000C14C907EFD5EFF3118083F31288BFF30B
:104CC0006F8F0A498B6C03F0C00343F002038B64BF
:104CD00080F31188BFF36F8F82F31188BFF36F8F5A
:104CE000002010BCFFF774BF00470020A84600203A
:104CF0002DE9F0414449BFF35B8F0646012251E89C
:104D0000003F41E800200028F9D1BFF35B8FA3B931
:104D10003E493F484B60CB608A60FDF73FFF00286B
:104D20000BDA3C493C4A3D484FF40C730BF016FF3C
:104D30004FF40C7138480BF008FF76B3731E012B4B
:104D400058D8012E07D14FF08043D3F81C3403F01C
:104D50000303012B21D00EF0DBFA0546F8B9304BE6
:104D60001B78E3B14FF080430222C3F808230746C3
:104D7000DFF8B0804FF08044D4F81824D4F8183409
:104D8000D20315D503F00303012B01D0012E0FD15F
:104D900055B387F31188BFF36F8FBDE8F081EFF350
:104DA0001187202383F31288BFF36F8F0125DFE77C
:104DB000ADB138460CF0B3F9D4F81835002BDBD17F
:104DC000D4F80421002AD7D0C4F80431D4F804312F
:104DD0000123C4F81835C8F88031A360CCE700215E
:104DE00021200AF06DFDE7E74FF080430222C3F86F
:104DF0000423D2E70C49084A084840F242230BF04A
:104E0000ADFE40F2422195E7A446002094460020E2
:104E1000C8460020C4510100C75A01005345010093
:104E2000C14C002000E100E0DF79010008B507482F
:104E30000EF024FA38B10648FFF73CFD0448FCF7B1
:104E400091FE002008BD6FF01200FBE7E434010082
:104E5000554E00000A2838B5074D044604D1AB680A
:104E60000D215B6828469847AB6803485B68E1B250
:104E70009847204638BD00BFE434010010B50369EF
:104E800061B92049204A21483A230BF067FE2048A7
:104E90000BF064FE3A211C480BF057FE486850B9ED
:104EA0001C49194A19483B230BF058FE1A480BF0CD
:104EB00055FE3B21EFE75868F8B1884219D19C684C
:104EC00008685860A14200D19860002008602AB1AB
:104ED0005A680A609A68596002B99960002010E027
:104EE000814206D10868206098688142EDD19C60BB
:104EF000EBE7044600680028F2D1002AE8D16FF001
:104F0000150010BD8D5B0100515B01005345010090
:104F1000965B0100A55B0100B75B010038B54568F1
:104F20002B69B3B11035284602F0E0FB044680B986
:104F30000146284602F09CFB084B98420BD10849D9
:104F40002246284602F062FB224605210620FFF792
:104F5000DFF9002038BD6FF00400FBE70000AD0B67
:104F60004152000008B503685909024614D00129CE
:104F700006D103F01F0340F2FF31D940C80713D414
:104F80000B490C480C4A40F267330BF0E7FD0A4826
:104F900040F267310BF0D9FD4FF0FF31D940C9071E
:104FA000EED54FF0A04000E00448136008BD00BFFC
:104FB000015C010053450100CE5B0100000300507D
:104FC000F0B54068057B01F01F0444EA451405690B
:104FD00087B0002D5CD0B2F5001F00F1100506D19E
:104FE000214628460CF079FB002007B0F0BD01AE49
:104FF0000027B2F5800F0197776034D1B3F1007FBD
:1050000014BF052304238DF804300023CDE9046385
:1050100003938368CB40D90717D4B2F1A07F14D192
:1050200068460094FFF79EFF009B03F5E07350F87D
:105030002330DB0709D46A462146284602F0ECFA01
:10504000164B98421AD0CDF808D003AA214628461C
:1050500002F0ACF9124B98421DD10122214628469C
:1050600002F05AFBC0E7B3F1C06F05D0B3F1007F87
:1050700014BF01230223C6E70323C4E76946284679
:1050800002F044FB064B9842DDD06FF00B00ACE71A
:105090006FF08500A9E76FF01500A6E70400AD0BDF
:1050A0000000AD0B2DE9F043466840F20635337B36
:1050B000D00687B001F01F0702EA050547EA43174B
:1050C00054BFC2F340130323B5F5837F14468DF814
:1050D000033044D00FD8062D18D007D8B5B1022D13
:1050E0003FD06FF0150007B0BDE8F083B5F5807FC5
:1050F000F7D101250AE040F20222954233D0B5F5FE
:10510000407F32D0B5F5007FEBD1022522032ED5AA
:10511000726801238B40C2F8083533697BBB03A852
:105120000397FFF71FFF039B00EB830084F480339A
:10513000C3F30043C4F34044D0F8002744EA4304D7
:105140009DF8033022F4E16244EA830422F007026E
:1051500044EA05231343C0F800370020C3E70725BE
:10516000D4E70425D2E70525D0E70325CEE763037E
:1051700041BF012372688B40C2F80C35CDE7103671
:105180000DF102023946304602F046FA14F4403F6F
:10519000804617D1394630460CF09DFA244B98458D
:1051A000DBD19DF80210304602F0AAFA4045D4D077
:1051B00020492148214AAB230BF0D0FC1F48AB21EA
:1051C0000BF0C3FC01AB4FF0000903AA394630468F
:1051D000CDE90439CDE90199CDF80C9002F0E6F85B
:1051E000134B98427FF47DAF14F4003315D09DF833
:1051F00003308DF80E3084F48034C4F300444B4601
:1052000003AA394630468DF80C508DF80D4002F057
:1052100081F9074B9842C1D063E7CDE9043303AA73
:105220000DF1030339463046039302F0BFF8F0E76F
:105230000000AD0B505C010053450100245C0100EF
:10524000420970B5034602D0012A1ED070BD144E2B
:10525000326951680029F9D003F01F0301250C6859
:105260009D400029F2D08A682A4012D04B6873B959
:105270000C490D4A0D485D230BF070FC0C480BF0F7
:105280006DFC09485D210BF060FC0A4EE0E73046FA
:1052900098471CB1236821461C46E2E72346FAE7FB
:1052A000D034010073620100515B010053450100DD
:1052B000B75B0100BC34010008B503685909024618
:1052C00014D0012906D103F01F0340F2FF31D94069
:1052D000C80713D40B490C480C4A40F267330BF053
:1052E0003DFC0A4840F267310BF02FFC4FF0FF31D4
:1052F000D940C907EED54FF0A04000E00448136044
:1053000008BD00BF015C010053450100CE5B0100F8
:10531000000300502DE9F04FDFF85C91DFF85CA14D
:1053200085B01546834600EB8108D84503D100209F
:1053300005B0BDE8F08FDBF80030D904C3F3432299
:1053400003F07F0400F192807F2C4FEA134319F899
:10535000027008BF4FF0FF34192B00F28A80DFE89B
:1053600003F00D141A1D20261D888888883663884E
:105370008888888888888888667C7F82C5F80C45FC
:10538000631C5ED10BF1040BCFE7C5F81445661C16
:10539000F8D000265FE0C5F80845F1E7C5F81045EC
:1053A000F5E7601CC5F80845ECD0002604E0611C58
:1053B000C5F80C45E6D0012603A80394FFF77CFF4F
:1053C000039B012202FA03F3C0F80C3508E0C5F88C
:1053D0000845002FDBD1631CD4D0002632460627B7
:1053E000DBF80030019303F40051002918BF0022BC
:1053F00003A8009218BF01260394FFF75DFF0399ED
:10540000019B009A00EB8100C3F3C114D0F8001790
:105410003B0243EA8403134301EA0A010B4343EAD4
:105420004603C0F80037ADE7C5F80C45D1E7C5F82D
:105430006045621CDBF80030A4D0C3F38033002B3E
:10544000B9D003A80394FFF737FF039B012606FAA0
:1054500003F3C0F808353246C2E7C5F86445E8E70B
:10546000C5F86845E5E7C5F86C45E2E76FF015005B
:105470005EE76FF085005BE7805C0100F0F8FCFF01
:105480002DE9F7430646002201210220FEF740FFE6
:105490000220FEF70DFF776835693C684FF0000881
:1054A000C4F800852E60D7F80C9001AA4146484602
:1054B0000BF034FF00283FDB019BD9F8002019795D
:1054C0001868FFF727FF002836DB6B7AD6F810C084
:1054D000012B03D0032B2DD14FF01008AB7A032BF7
:1054E00028D195F80BE0BEF1000F02D0BEF1010FFC
:1054F00020D1297A012922D0022924D0D1B90A4603
:105500006B687068B3F5164F006800F0898037D873
:10551000B3F5165F00F087801FD8B3F5966F00F0E3
:10552000848012D8B3F5967F00F08280B3F5167FA1
:1055300000F081806FF0850003B0BDE8F0834FF488
:1055400080720E21DCE70022FBE7B3F5166F75D001
:10555000B3F5965FEED15E4B3EE0B3F5E14F70D010
:1055600007D8B3F5615F6ED0B3F5964FE2D1594BD2
:1055700032E047F612294B45DCD14FF400032BE013
:10558000B3F5613F61D013D8B3F5963F60D009D829
:105590004DF6C0294B455DD0B3F5614FCAD14FF4EC
:1055A0006B0319E0B3F5E13FC4D14FF0EB7313E0A7
:1055B000B3F5612F51D009D8DFF81C914B454FD07E
:1055C000B3F5E12FB6D14FF0E86305E0DFF80C91B9
:1055D0004B45AFD14FF08053C0F82435736848EA8B
:1055E00001081B6842EA0E0242EA0802C3F86C2571
:1055F000D5E901010CF1040383E803007B689907F6
:105600003DD505F1180002F0D9F9354B98422AD062
:105610003448354A01210BF0B6FC6FF004008BE7EB
:105620004FF41D03D8E7314BD6E74FF49E23D3E761
:105630004FF4A033D0E74FF41C33CDE74FF41D23D4
:10564000CAE72B4BC8E72B4BC6E74FF06C73C3E799
:10565000294BC1E74FF46503BEE74FF07063BBE72A
:105660004FF08063B8E7287E04F10C0204F59071D6
:105670000BF08AFF2B7E0120984001F065FB082388
:10568000C4F800353B7A53B9C4F81031D4F810315E
:105690006B69C4F834350123C4F8383523607B685E
:1056A0009A075CBF4FF48073C4F804337B68DB0651
:1056B00044BF4FF48003C4F804332B69C4F8443565
:1056C00000200123C4F84805A360E36034E700BF6D
:1056D00000B0130000A04E0090D0030040420F0025
:1056E0000000AD0B04370100885C0100005027006A
:1056F00000C0750000F03A0000903A012DE9F04139
:10570000044607690D460DF003FE4FF02008B0B9BE
:105710002C4B1B789BB1642660680BF02DFEF0B912
:1057200001200BF02FFF013EF6D1002121200AF0CD
:10573000C7F8F0E786F31188BFF36F8FF5E7EFF353
:105740001186314688F31288BFF36F8F60680BF0C3
:1057500013FE80B986F31188BFF36F8FEFE7EFF385
:105760001186314688F31288BFF36F8F60680BF0A3
:1057700003FE0028DED03B691D706268386913683B
:10578000C3F844050120C3F848050020C3F82001F0
:10579000D3F82051C3F858015268D3F85801D20603
:1057A00008D5626812680820C2F800054FF480022C
:1057B000C3F8042301229A6081F31188BFF36F8F2D
:1057C000BDE8F081C14C002008B5036859090246C4
:1057D00014D0012906D103F01F0340F2FF31D94054
:1057E000C80713D40B490C480C4A40F267330BF03E
:1057F000B5F90A4840F267310BF0A7F94FF0FF31D5
:10580000D940C907EED54FF0A04000E0044813602E
:1058100008BD00BF015C010053450100CE5B0100E3
:105820000003005010B5012303FA01F14368046935
:105830001B6819420ED10E490E4A0F484FF4CB6334
:105840000BF08CF90D480BF089F90A484FF4CB6145
:105850000BF07BF92368194218BF82F0010222B1D4
:105860008368DB68BDE81040184783681B69F9E767
:10587000F65C0100C55C010053450100345D010088
:105880002DE9F04383B045680669D5F8208000AF64
:105890003A1D002140460BF041FD041E1ADB7B68D7
:1058A000D8F8002019791868FFF734FD041E11DBC1
:1058B000696A481C1BD005F1280000F03BFB10F181
:1058C000130F04460BD14A4A4A4801210BF09BFDB5
:1058D0006FF0120420460C37BD46BDE8F083411D31
:1058E00005D1454A434801210BF08DFDF2E7EB69F4
:1058F0009847B5684FF00108D6E9023203EBC203BE
:105900009D4204D330460BF0B9FD0024E2E728683D
:105910000DF0B4FC0346B0B92A68297910686C46CA
:105920008AB06A46354DD1614FF400711184344913
:10593000C2E9055042F8101F2E484FF41151FDF7EF
:105940005BFDA546C4E728682979EB8803F030029F
:10595000302AD0E90149D0F810E00ED129492A4A6D
:105960002A4840F2D3330BF0F9F829480BF0F6F847
:1059700040F2D33124480BF0E8F803F00602042A81
:1059800009D12449204A214840F2DA330BF0E6F8E5
:1059900040F2DA31EEE72468DA0708FA01FC54BF76
:1059A00043F4B01383F4D0131CEA040F23F48012E1
:1059B0000CD11949144A154840F2ED330BF0CEF8DA
:1059C00016480BF0CBF840F2ED31D3E7DEF800409B
:1059D000DB074CBF44EA0C0424EA0C04CEF8004078
:1059E000D9F800309847041EFFF674AF083583E7F6
:1059F000465D0100F4360100715D01008E5D01001D
:105A000004000001B25D0100C55C010053450100C6
:105A1000EB5D0100285E0100F65C0100345D0100D1
:105A20007FB50546406829698A6C0B6D0ABBABB12E
:105A30004C6C8B6516461A46C96C0291CDE900463E
:105A400011B3002B18BF134600226946039302F0DE
:105A500031F90E4B98420AD06FF004032C6923638E
:105A600004F1200008F0B8FD002384F85C3004B095
:105A700070BD4C6C13B19A4228BF1A46002C8A653F
:105A800014BF16460026D7E70B46DDE70000AD0B36
:105A900038B503780C4663B98D6D5DB94B6D1C69E3
:105AA0006FF07303236304F1200008F095FD84F880
:105AB0005C5038BD8B6C33B19D4213D9224A2348C8
:105AC00001210BF0A0FC236DA26D33B19A4221D9C4
:105AD0001D4A1E4801210BF096FC606DBDE8384060
